:020000040000FA
:100000000C945D000C9485000C9485000C94850084
:100010000C9485000C9485000C9485000C9485004C
:100020000C9485000C9485000C9485000C9485003C
:100030000C9485000C9485000C9485000C9485002C
:100040000C9430030C9485000C94FE020C94D8029E
:100050000C9485000C9485000C9485000C9485000C
:100060000C9485000C94850000000008000201003B
:100070000003040700000000000000000000000072
:10008000250028002B0000000000240027002A0083
:10009000040404040404040402020202020203032E
:1000A0000303030301020408102040800102040836
:1000B00010200102040810207A0311241FBECFEF84
:1000C000D8E0DEBFCDBF22E0A2E4B1E001C01D92C6
:1000D000A333B207E1F711E0A0E0B1E0E8E5FCE00E
:1000E00002C005900D92A234B107D9F710E0CDE51A
:1000F000D0E004C02197FE010E942406CC35D10730
:10010000C9F70E94B9030C942A060C940000E0E59C
:10011000F1E0A089B18982E08C93A485B5851C9219
:10012000A685B7858FEC8C93108EA489B58986E05F
:100130008C93A289B3898C9180618C93A289B389B5
:100140008C9188608C93A289B3898C9180688C9300
:100150000288F389E02D80818F7D80830895AF929E
:10016000BF92CF92DF92EF92FF920F931F93CF93A4
:10017000DF936C017B018B01040F151FEB015E0106
:10018000AE18BF08C017D10759F06991D601ED919B
:10019000FC910190F081E02DC6010995892B79F73A
:1001A000C501DF91CF911F910F91FF90EF90DF90EC
:1001B000CF90BF90AF900895FC01538D448D252FB3
:1001C00030E0842F90E0821B930B541710F0CF96F1
:1001D000089501970895FC01918D828D981761F023
:1001E000A28DAE0FBF2FB11D5D968C91928D9F5F3A
:1001F0009F73928F90E008958FEF9FEF0895FC0119
:10020000918D828D981731F0828DE80FF11D858DCB
:1002100090E008958FEF9FEF0895FC01918D228D5E
:10022000892F90E0805C9F4F821B91098F739927E3
:10023000089580E591E00E940D0121E0892B09F4E9
:1002400020E0822F089580E090E0892B29F00E9421
:10025000190181110C9400000895FC01A48DA80FD0
:10026000B92FB11DA35ABF4F2C91848D90E00196F8
:100270008F739927848FA689B7892C93A089B18918
:100280008C91837080648C93938D848D981306C0B9
:100290000288F389E02D80818F7D80830895EF921D
:1002A000FF920F931F93CF93DF93EC0181E0888F30
:1002B0009B8D8C8D98131AC0E889F989808185FF00
:1002C00015C09FB7F894EE89FF896083E889F989A2
:1002D00080818370806480839FBF81E090E0DF91A4
:1002E000CF911F910F91FF90EF900895F62E0B8DF7
:1002F00010E00F5F1F4F0F731127E02E8C8D8E11B2
:100300000CC00FB607FCFACFE889F989808185FF18
:10031000F5CFCE010E942D01F1CFEB8DEC0FFD2F1B
:10032000F11DE35AFF4FF0829FB7F8940B8FEA89D3
:10033000FB8980818062CFCFCF93DF93EC01888DE2
:100340008823B9F0AA89BB89E889F9898C9185FD50
:1003500003C0808186FD0DC00FB607FCF7CF8C91DE
:1003600085FFF2CF808185FFEDCFCE010E942D0168
:10037000E9CFDF91CF91089590E0FC01E859FF4F5C
:100380002491FC01EC55FF4F3491FC01E057FF4FE5
:10039000E491EE23C9F0222339F0233001F1A8F4CF
:1003A000213019F1223029F1F0E0EE0FFF1FE4585F
:1003B000FF4FA591B4918FB7F894EC91611126C0CD
:1003C00030953E233C938FBF08952730A9F0283005
:1003D000C9F0243049F7809180008F7D03C080915F
:1003E00080008F7780938000DFCF84B58F7784BDC6
:1003F000DBCF84B58F7DFBCF8091B0008F7780936A
:10040000B000D2CF8091B0008F7DF9CF3E2BDACFF4
:100410003FB7F8948091470190914801A09149011C
:10042000B0914A0126B5A89B05C02F3F19F001964F
:10043000A11DB11D3FBFBA2FA92F982F8827BC013E
:10044000CD01620F711D811D911D42E0660F771F66
:10045000881F991F4A95D1F708952FB7F894609196
:1004600043017091440180914501909146012FBF55
:100470000895FC0101900020E9F73197AF01481B76
:10048000590BBC0180E591E00C94AF008F929F92D4
:10049000AF92BF920F931F93CF93DF93CDB7DEB789
:1004A000A1970FB6F894DEBF0FBECDBF19A24230A0
:1004B00008F44AE08E010F5D1F4F842E912CB12C61
:1004C000A12CA50194010E940206E62FB901CA01E0
:1004D000EA30F4F4E05DD801EE938D01232B242B58
:1004E000252B79F790E080E0109719F0CD010E945C
:1004F0003902A1960FB6F894DEBF0FBECDBFDF91D3
:10050000CF911F910F91BF90AF909F908F900895C2
:10051000E95CE1CFEF92FF920F931F93CF93DF93AC
:1005200000D000D0CDB7DEB780E591E00E94EB00AF
:1005300080E591E00E94EB008E010F5F1F4F780174
:100540008A3341F0F80181938F0180E591E00E94A8
:10055000EB00F6CFC7010E94DC05182F80E591E083
:100560000E94EB008053990B8230910520F4682F94
:10057000812F0E94BC0180E591E00E94EB008A304F
:1005800011F08D30C1F780E591E00E94FF008A30C4
:1005900021F480E591E00E94EB000F900F900F9006
:1005A0000F90DF91CF911F910F91FF90EF900895E1
:1005B0001F920F920FB60F9211242F933F934F93D8
:1005C0005F936F937F938F939F93AF93BF93EF93BB
:1005D000FF9380E591E00E942D01FF91EF91BF9183
:1005E000AF919F918F917F916F915F914F913F91CB
:1005F0002F910F900FBE0F901F9018951F920F9282
:100600000FB60F9211242F938F939F93EF93FF9325
:10061000E0916001F09161018081E0916601F091CB
:10062000670182FD1BC09081809169018F5F8F738C
:1006300020916A01821741F0E0916901F0E0E05BEE
:10064000FE4F958F80936901FF91EF919F918F915C
:100650002F910F900FBE0F901F9018958081F4CFAF
:100660001F920F920FB60F9211242F933F938F93E7
:100670009F93AF93BF938091430190914401A091C8
:100680004501B09146013091420123E0230F2D37FF
:1006900058F50196A11DB11D20934201809343019D
:1006A00090934401A0934501B09346018091470186
:1006B00090914801A0914901B0914A010196A11D74
:1006C000B11D8093470190934801A0934901B093D5
:1006D0004A01BF91AF919F918F913F912F910F90C0
:1006E0000FBE0F901F90189526E8230F0296A11DAC
:1006F000B11DD2CFE0E5F1E01382128288EE93E0E3
:10070000A0E0B0E084839583A683B78384E091E082
:100710009183808385EC90E09587848784EC90E0DA
:100720009787868780EC90E0918B808B81EC90E0BE
:10073000938B828B82EC90E0958B848B86EC90E09F
:10074000978B868B118E128E138E148EEDEEF1E048
:1007500016821782108611861286138614861586D5
:1007600016861786108A118A128A138A148A158AA5
:100770000895789484B5826084BD84B5816084BD19
:1007800085B5826085BD85B5816085BD80916E002F
:10079000816080936E001092810080918100826060
:1007A000809381008091810081608093810080919D
:1007B00080008160809380008091B100846080938C
:1007C000B1008091B00081608093B00080917A0088
:1007D000846080937A0080917A00826080937A00AE
:1007E00080917A00816080937A0080917A0080689D
:1007F00080937A001092C10010922F021092300262
:1008000010923102109232021092EF011092F00118
:100810001092F1011092F2010E942D026B017C01F5
:100820004B015C0128EB820E2BE0921EA11CB11C37
:100830000E942D026C157D058E059F0528F08616F9
:100840009706A806B906A0F70E9408024B015C01B2
:1008500048EEC42E43E0D42EE12CF12C0E94080275
:10086000681979098A099B09683E734081059105D9
:10087000A8F331E0C31AD108E108F10848EE840E6C
:1008800043E0941EA11CB11CC114D104E104F10485
:1008900029F70E9487000E942D026093EF01709358
:1008A000F0018093F1019093F20182E191E00E94C6
:1008B00039020E942D026B017C014B015C018AE030
:1008C000880E911CA11CB11C0E942D026C157D0587
:1008D0008E059F0528F086169706A806B906A0F78C
:1008E00081E0809303020E942D026093EF017093D8
:1008F000F0018093F1019093F20183E291E00E9474
:1009000039020E948700E1EBF0E02491EDE9F0E08C
:100910008491882399F090E0880F991FFC01EA5791
:10092000FF4FA591B491FC01E458FF4F859194913C
:100930008FB7F894EC91E22BEC938FBFC0E0D0E03E
:1009400084EF882E99249394A12CB12C0E942D021F
:10095000672B682B692B09F4F1C00E942D02C0900F
:100960004C01D0904D01E0904E01F0904F016C157C
:100970007D058E059F0508F40BC1C0904C01D090F9
:100980004D01E0904E01F0904F019B01AC012C19FC
:100990003D094E095F0969017A0138EEC31633E05B
:1009A000D306E104F10408F4D1C060934C017093C4
:1009B0004D0180934E0190934F018092FB019092E4
:1009C000FC01A092FD01B092FE011092FF01109275
:1009D000000210920102109202028091F3019091A4
:1009E000F401A091F501B091F6018093F701909385
:1009F000F801A093F901B093FA010E942D026093CF
:100A0000F3017093F4018093F5019093F60180E572
:100A100091E00E94FF00843611F40E948A020E9435
:100A20002D026093EF017093F0018093F101909398
:100A3000F2010E942D026B017C018AE291E00E948A
:100A400039024AE061E070E080E090E00E944602F6
:100A500081E391E00E9439024AE0C701B6010E9499
:100A6000460283E391E00E9439028091F301909164
:100A7000F401A091F501B091F601A7019601281BA0
:100A8000390B4A0B5B0BCA01B9014AE00E944602CE
:100A900083E391E00E9439026091F3017091F401C7
:100AA0008091F5019091F601C090F701D090F80186
:100AB000E090F901F090FA016C197D098E099F0907
:100AC0004AE00E94460285E391E00E9439020E94BA
:100AD0002D024AE00E94460287E391E00E9439021B
:100AE0008EE391E00E9439020E942D022B013C010D
:100AF0007C016B0135E0C30ED11CE11CF11C0E948E
:100B00002D02641575058605970528F0C616D706CB
:100B1000E806F906A0F780E591E00E94FF00843620
:100B200011F40E948A020E942D026093F3017093D7
:100B3000F4018093F5019093F60108C00E942D0204
:100B4000623071058105910508F007CF80E591E0DD
:100B50000E940D011816190624F580E591E00E9407
:100B6000EB0080934B01682F80E591E00E944F01DC
:100B70008EE391E00E94390280914B0161E08A3559
:100B800019F08A3719F760E08DE00E94BC01DECFD2
:100B900060934C0170934D0180934E0190934F01EF
:100BA000ECCE209709F4D2CE0E941901882309F4D3
:100BB000CDCE0E940000CACEFC0188279927E89478
:100BC00021912032E9F3293010F02E30C8F32B3276
:100BD00041F02D3239F4689404C00E94FA05820F66
:100BE000911D219120532A30C0F31EF490958195D8
:100BF0009F4F08957AE0979F902D879F802D910DAC
:100C000011240895A1E21A2EAA1BBB1BFD010DC0E1
:100C1000AA1FBB1FEE1FFF1FA217B307E407F507AC
:100C200020F0A21BB30BE40BF50B661F771F881F88
:100C3000991F1A9469F760957095809590959B011E
:100C4000AC01BD01CF010895EE0FFF1F0590F49197
:100C5000E02D0994F894FFCF000000004F01AF0091
:100C6000DC009C010D01EB00FF00564D4450565F27
:100C7000317C315F564D4450560A00564D44505217
:100C80005F00564D4450455F003A323A007C005FA9
:0A0C9000564D445045000D0A0000C7
:107E0000112484B714BE81FFF0D085E080938100F7
:107E100082E08093C00088E18093C10086E0809377
:107E2000C20080E18093C4008EE0C9D0259A86E02C
:107E300020E33CEF91E0309385002093840096BBD3
:107E4000B09BFECF1D9AA8958150A9F7CC24DD24C4
:107E500088248394B5E0AB2EA1E19A2EF3E0BF2EE7
:107E6000A2D0813461F49FD0082FAFD0023811F036
:107E7000013811F484E001C083E08DD089C08234E0
:107E800011F484E103C0853419F485E0A6D080C0E4
:107E9000853579F488D0E82EFF2485D0082F10E0AE
:107EA000102F00270E291F29000F111F8ED06801E7
:107EB0006FC0863521F484E090D080E0DECF843638
:107EC00009F040C070D06FD0082F6DD080E0C81688
:107ED00080E7D80618F4F601B7BEE895C0E0D1E017
:107EE00062D089930C17E1F7F0E0CF16F0E7DF06D8
:107EF00018F0F601B7BEE89568D007B600FCFDCFD4
:107F0000A601A0E0B1E02C9130E011968C91119780
:107F100090E0982F8827822B932B1296FA010C0160
:107F200087BEE89511244E5F5F4FF1E0A038BF0790
:107F300051F7F601A7BEE89507B600FCFDCF97BE46
:107F4000E89526C08437B1F42ED02DD0F82E2BD052
:107F50003CD0F601EF2C8F010F5F1F4F84911BD097
:107F6000EA94F801C1F70894C11CD11CFA94CF0C13
:107F7000D11C0EC0853739F428D08EE10CD085E9AC
:107F80000AD08FE07ACF813511F488E018D01DD067
:107F900080E101D065CF982F8091C00085FFFCCF94
:107FA0009093C60008958091C00087FFFCCF809118
:107FB000C00084FD01C0A8958091C6000895E0E648
:107FC000F0E098E1908380830895EDDF803219F02E
:107FD00088E0F5DFFFCF84E1DECF1F93182FE3DFCA
:107FE0001150E9F7F2DF1F91089580E0E8DFEE27F6
:047FF000FF270994CA
:027FFE00040479
:00000001FF
