:020000040000FA
:100000000C945D000C9485000C9485000C94850084
:100010000C9485000C9485000C9485000C9485004C
:100020000C9485000C9485000C9485000C9485003C
:100030000C9485000C9485000C9485000C9485002C
:100040000C943A030C9484030C9408030C94E2027D
:100050000C9485000C9485000C9485000C9485000C
:100060000C9485000C9485000000000024002700FB
:100070002A0000000000250028002B0004040404CE
:100080000404040402020202020203030303030342
:10009000010204081020408001020408102001021F
:1000A00004081020000000080002010000030407FB
:1000B0000000000000000000AF0311241FBECFEFBE
:1000C000D8E0DEBFCDBF22E0A2E4B1E001C01D92C6
:1000D000A839B207E1F711E0A0E0B1E0EEEBFCE0F7
:1000E00002C005900D92A234B107D9F710E0CDE51A
:1000F000D0E004C02197FE010E945706CC35D107FD
:10010000C9F70E94EE030C945D060C940000E5EB29
:10011000F1E0A089B18982E08C93A485B5851C9219
:10012000A685B7858FEC8C93108EA489B58986E05F
:100130008C93A289B3898C9180618C93A289B389B5
:100140008C9188608C93A289B3898C9180688C9300
:100150000288F389E02D80818F7D80830895AF929E
:10016000BF92CF92DF92EF92FF920F931F93CF93A4
:10017000DF936C017B018B01040F151FEB015E0106
:10018000AE18BF08C017D10759F06991D601ED919B
:10019000FC910190F081E02DC6010995892B79F73A
:1001A000C501DF91CF911F910F91FF90EF90DF90EC
:1001B000CF90BF90AF900895FC01538D448D252FB3
:1001C00030E0842F90E0821B930B541710F0CF96F1
:1001D000089501970895FC01918D828D981761F023
:1001E000A28DAE0FBF2FB11D5D968C91928D9F5F3A
:1001F0009F73928F90E008958FEF9FEF0895FC0119
:10020000918D828D981731F0828DE80FF11D858DCB
:1002100090E008958FEF9FEF0895FC01918D228D5E
:10022000892F90E0805C9F4F821B91098F739927E3
:10023000089585EB91E00E940D0121E0892B09F4DE
:1002400020E0822F089580E090E0892B29F00E9421
:10025000190181110C9400000895FC01A48DA80FD0
:10026000B92FB11DA35ABF4F2C91848D90E00196F8
:100270008F739927848FA689B7892C93A089B18918
:100280008C91837080648C93938D848D981306C0B9
:100290000288F389E02D80818F7D80830895EF921D
:1002A000FF920F931F93CF93DF93EC0181E0888F30
:1002B0009B8D8C8D98131AC0E889F989808185FF00
:1002C00015C09FB7F894EE89FF896083E889F989A2
:1002D00080818370806480839FBF81E090E0DF91A4
:1002E000CF911F910F91FF90EF900895F62E0B8DF7
:1002F00010E00F5F1F4F0F731127E02E8C8D8E11B2
:100300000CC00FB607FCFACFE889F989808185FF18
:10031000F5CFCE010E942D01F1CFEB8DEC0FFD2F1B
:10032000F11DE35AFF4FF0829FB7F8940B8FEA89D3
:10033000FB8980818062CFCFCF93DF93EC01888DE2
:100340008823B9F0AA89BB89E889F9898C9185FD50
:1003500003C0808186FD0DC00FB607FCF7CF8C91DE
:1003600085FFF2CF808185FFEDCFCE010E942D0168
:10037000E9CFDF91CF9108953FB7F894809147017D
:1003800090914801A0914901B0914A0126B5A89BDE
:1003900005C02F3F19F00196A11DB11D3FBFBA2F17
:1003A000A92F982F8827BC01CD01620F711D811DD7
:1003B000911D42E0660F771F881F991F4A95D1F75C
:1003C00008952FB7F8946091430170914401809192
:1003D0004501909146012FBF0895FC010190002036
:1003E000E9F73197AF01481B590BBC0185EB91E050
:1003F0000C94AF008F929F92AF92BF920F931F9376
:10040000CF93DF93CDB7DEB7A1970FB6F894DEBFD9
:100410000FBECDBF19A2423008F44AE08E010F5D35
:100420001F4F842E912CB12CA12CA50194010E9468
:100430003506E62FB901CA01EA30F4F4E05DD801CF
:10044000EE938D01232B242B252B79F790E080E070
:10045000109719F0CD010E94ED01A1960FB6F89406
:10046000DEBF0FBECDBFDF91CF911F910F91BF9027
:10047000AF909F908F900895E95CE1CFEF92FF924B
:100480000F931F93CF93DF9300D000D0CDB7DEB78B
:1004900085EB91E00E94EB0085EB91E00E94EB0080
:1004A0008E010F5F1F4F78018A3341F0F80181936D
:1004B0008F0185EB91E00E94EB00F6CFC7010E940F
:1004C0000F068C0185EB91E00E94EB00282F205352
:1004D000330BA9012230310558F51127F801EC55ED
:1004E000FF4F8491F801E057FF4F9491F801E458D1
:1004F000FF4FE491EE23E1F0882351F0833009F4BB
:100500003DC090F5813009F43FC0823009F440C00D
:10051000F0E0EE0FFF1FEE58FF4FA591B4918FB79B
:10052000F894EC91411141C090959E239C938FBF0C
:1005300085EB91E00E94EB008A3011F08D30C1F71D
:1005400085EB91E00E94FF008A3089F585EB91E010
:100550000F900F900F900F90DF91CF911F910F91FF
:10056000FF90EF900C94EB008730A9F08830C9F031
:10057000843071F6809180008F7D03C0809180006F
:100580008F7780938000C4CF84B58F7784BDC0CF30
:1005900084B58F7DFBCF8091B0008F778093B000C2
:1005A000B7CF8091B0008F7DF9CF9E2BBFCF0F903A
:1005B0000F900F900F90DF91CF911F910F91FF90AF
:1005C000EF9008951F920F920FB60F9211242F9360
:1005D0003F934F935F936F937F938F939F93AF93CB
:1005E000BF93EF93FF9385EB91E00E942D01FF9164
:1005F000EF91BF91AF919F918F917F916F915F919B
:100600004F913F912F910F900FBE0F901F90189513
:100610001F920F920FB60F9211242F938F939F93D7
:10062000EF93FF93E091C501F091C6018081E091C5
:10063000CB01F091CC0182FD1BC090818091CE0155
:100640008F5F8F732091CF01821741F0E091CE012F
:10065000F0E0EB54FE4F958F8093CE01FF91EF9128
:100660009F918F912F910F900FBE0F901F90189513
:100670008081F4CF1F920F920FB60F9211242F9307
:100680003F938F939F93AF93BF938091430190913A
:100690004401A0914501B09146013091420123E00F
:1006A000230F2D3758F50196A11DB11D209342014E
:1006B0008093430190934401A0934501B093460178
:1006C0008091470190914801A0914901B0914A0160
:1006D0000196A11DB11D8093470190934801A093FD
:1006E0004901B0934A01BF91AF919F918F913F9182
:1006F0002F910F900FBE0F901F90189526E8230F93
:100700000296A11DB11DD2CF1F920F920FB60F926C
:1007100011242F938F939F93EF93FF939FB7F89498
:100720008EB52091AF01243678F4E091AF0121E03D
:100730002E0F2093AF01F0E0E55BFE4F80838A30FF
:1007400019F481E08093B0019FBFFF91EF919F91D9
:100750008F912F910F900FBE0F901F901895E5EB82
:10076000F1E01382128288EE93E0A0E0B0E084838F
:100770009583A683B78384E091E09183808385ECA1
:1007800090E09587848784EC90E09787868780EC5B
:1007900090E0918B808B81EC90E0938B828B82EC4C
:1007A00090E0958B848B86EC90E0978B868B118EF6
:1007B000128E138E148EE2E5F2E0168217821086F6
:1007C0001186128613861486158616861786108A59
:1007D000118A128A138A148A158A0895789484B526
:1007E000826084BD84B5816084BD85B5826085BD2D
:1007F00085B5816085BD80916E00816080936E00BB
:1008000010928100809181008260809381008091AC
:10081000810081608093810080918000816080935D
:1008200080008091B10084608093B1008091B0001D
:1008300081608093B00080917A00846080937A0018
:1008400080917A00826080937A0080917A00816042
:1008500080937A0080917A00806880937A00109269
:10086000C10010929402109295021092960210927A
:100870009702109254021092550210925602109252
:1008800057020E94E1016B017C014B015C0128EBE6
:10089000820E2BE0921EA11CB11C0E94E1016C157E
:1008A0007D058E059F0528F086169706A806B906D1
:1008B000A0F70E94BC014B015C0148EEC42E43E04E
:1008C000D42EE12CF12C0E94BC01681979098A0907
:1008D0009B09683E734081059105A8F331E0C31A76
:1008E000D108E108F10848EE840E43E0941EA11CF3
:1008F000B11CC114D104E104F10429F70E9487005E
:100900000E94E10160935402709355028093560255
:100910009093570282E191E00E94ED010E94E10173
:100920006B017C014B015C018AE0880E911CA11CCB
:10093000B11C0E94E1016C157D058E059F0528F014
:1009400086169706A806B906A0F781E0809368028C
:100950000E94E10160935402709355028093560205
:100960009093570283E291E00E94ED010E9487007C
:100970008CB580648CBDECE9F0E02491E8E8F0E00F
:100980008491882399F090E0880F991FFC01E85921
:10099000FF4FA591B491FC01EE58FF4F85919491C2
:1009A0008FB7F894EC91E22BEC938FBF1092AF01CC
:1009B0001092B0018CB580688CBDC0E0D0E084EFAF
:1009C000C82EDD24D394E12CF12C0E94E101672B89
:1009D000682B692B09F4F1C00E94E1018090B101FC
:1009E0009090B201A090B301B090B4016815790560
:1009F0008A059B0508F40AC18090B1019090B2016C
:100A0000A090B301B090B4019B01AC012819390941
:100A10004A095B0949015A0138EE831633E093060F
:100A2000A104B10408F4D1C06093B1017093B20184
:100A30008093B3019093B401C0926002D09261029E
:100A4000E0926202F09263021092640210926502D8
:100A5000109266021092670280915802909159029A
:100A6000A0915A02B0915B0280935C0290935D0268
:100A7000A0935E02B0935F020E94E101609358026E
:100A80007093590280935A0290935B0285EB91E038
:100A90000E94FF00843611F40E943E020E94E10190
:100AA00060935402709355028093560290935702BC
:100AB0000E94E1014B015C018AE291E00E94ED019C
:100AC0004AE061E070E080E090E00E94FA0181E39A
:100AD00091E00E94ED014AE0C501B4010E94FA01D3
:100AE00083E391E00E94ED018091580290915902B8
:100AF000A0915A02B0915B02A5019401281B390B09
:100B00004A0B5B0BCA01B9014AE00E94FA0183E378
:100B100091E00E94ED01609158027091590280911C
:100B20005A0290915B0280905C0290905D02A090CE
:100B30005E02B0905F02681979098A099B094AE050
:100B40000E94FA0185E391E00E94ED010E94E1011B
:100B50004AE00E94FA0187E391E00E94ED018EE3F2
:100B600091E00E94ED010E94E1012B013C015C013A
:100B70004B0135E0830E911CA11CB11C0E94E101C8
:100B8000641575058605970528F086169706A8064C
:100B9000B906A0F785EB91E00E94FF00843611F4BE
:100BA0000E943E020E94E101609358027093590234
:100BB00080935A0290935B0208C00E94E101623068
:100BC00071058105910508F007CF8091B001882358
:100BD00091F0E091AF01F0E0E55BFE4F10828BE415
:100BE00091E00E94ED018EE391E00E94ED011092F0
:100BF000AF011092B001209709F4E7CE0E941901CD
:100C0000882309F4E2CE0E940000DFCE6093B10198
:100C10007093B2018093B3019093B401EDCEFC01C7
:100C200088279927E89421912032E9F3293010F0A0
:100C30002E30C8F32B3241F02D3239F4689404C0C1
:100C40000E942D06820F911D219120532A30C0F35E
:100C50001EF4909581959F4F08957AE0979F902D6F
:100C6000879F802D910D11240895A1E21A2EAA1BB1
:100C7000BB1BFD010DC0AA1FBB1FEE1FFF1FA2174C
:100C8000B307E407F50720F0A21BB30BE40BF50B49
:100C9000661F771F881F991F1A9469F760957095D2
:100CA000809590959B01AC01BD01CF010895EE0F99
:100CB000FF1F0590F491E02D0994F894FFCF0000F8
:100CC00000004F01AF00DC009C010D01EB00FF00B4
:100CD000564D4450565F317C315F564D4450560A54
:100CE00000564D4450525F00564D4450455F003A07
:100CF000323A007C005F564D445045000D0A00001A
:107E0000112484B714BE81FFF0D085E080938100F7
:107E100082E08093C00088E18093C10086E0809377
:107E2000C20080E18093C4008EE0C9D0259A86E02C
:107E300020E33CEF91E0309385002093840096BBD3
:107E4000B09BFECF1D9AA8958150A9F7CC24DD24C4
:107E500088248394B5E0AB2EA1E19A2EF3E0BF2EE7
:107E6000A2D0813461F49FD0082FAFD0023811F036
:107E7000013811F484E001C083E08DD089C08234E0
:107E800011F484E103C0853419F485E0A6D080C0E4
:107E9000853579F488D0E82EFF2485D0082F10E0AE
:107EA000102F00270E291F29000F111F8ED06801E7
:107EB0006FC0863521F484E090D080E0DECF843638
:107EC00009F040C070D06FD0082F6DD080E0C81688
:107ED00080E7D80618F4F601B7BEE895C0E0D1E017
:107EE00062D089930C17E1F7F0E0CF16F0E7DF06D8
:107EF00018F0F601B7BEE89568D007B600FCFDCFD4
:107F0000A601A0E0B1E02C9130E011968C91119780
:107F100090E0982F8827822B932B1296FA010C0160
:107F200087BEE89511244E5F5F4FF1E0A038BF0790
:107F300051F7F601A7BEE89507B600FCFDCF97BE46
:107F4000E89526C08437B1F42ED02DD0F82E2BD052
:107F50003CD0F601EF2C8F010F5F1F4F84911BD097
:107F6000EA94F801C1F70894C11CD11CFA94CF0C13
:107F7000D11C0EC0853739F428D08EE10CD085E9AC
:107F80000AD08FE07ACF813511F488E018D01DD067
:107F900080E101D065CF982F8091C00085FFFCCF94
:107FA0009093C60008958091C00087FFFCCF809118
:107FB000C00084FD01C0A8958091C6000895E0E648
:107FC000F0E098E1908380830895EDDF803219F02E
:107FD00088E0F5DFFFCF84E1DECF1F93182FE3DFCA
:107FE0001150E9F7F2DF1F91089580E0E8DFEE27F6
:047FF000FF270994CA
:027FFE00040479
:00000001FF
